{
  "contractName": "Bookchain",
  "abi": [
    {
      "inputs": [],
      "payable": false,
      "stateMutability": "nonpayable",
      "type": "constructor"
    },
    {
      "constant": false,
      "inputs": [
        {
          "name": "bookName",
          "type": "string"
        },
        {
          "name": "hashBook",
          "type": "string"
        },
        {
          "name": "authors",
          "type": "string"
        },
        {
          "name": "publisher",
          "type": "string"
        },
        {
          "name": "bookStore",
          "type": "string"
        },
        {
          "name": "transaction",
          "type": "string"
        },
        {
          "name": "yearPublish",
          "type": "string"
        }
      ],
      "name": "contractRegister",
      "outputs": [],
      "payable": false,
      "stateMutability": "nonpayable",
      "type": "function"
    },
    {
      "constant": true,
      "inputs": [
        {
          "name": "hashBook",
          "type": "string"
        },
        {
          "name": "suserID",
          "type": "string"
        }
      ],
      "name": "hashSpecialBook",
      "outputs": [
        {
          "name": "",
          "type": "bytes32"
        }
      ],
      "payable": false,
      "stateMutability": "pure",
      "type": "function"
    },
    {
      "constant": false,
      "inputs": [
        {
          "name": "sbookName",
          "type": "string"
        },
        {
          "name": "shashbook",
          "type": "string"
        },
        {
          "name": "suserID",
          "type": "string"
        },
        {
          "name": "customerName",
          "type": "string"
        }
      ],
      "name": "specialBookPublish",
      "outputs": [],
      "payable": false,
      "stateMutability": "nonpayable",
      "type": "function"
    },
    {
      "constant": true,
      "inputs": [],
      "name": "getNumberOfBooks",
      "outputs": [
        {
          "name": "numberOfBooks",
          "type": "uint256"
        }
      ],
      "payable": false,
      "stateMutability": "view",
      "type": "function"
    },
    {
      "constant": true,
      "inputs": [],
      "name": "getNumberOfSaleBooks",
      "outputs": [
        {
          "name": "numberOfsBooks",
          "type": "uint256"
        }
      ],
      "payable": false,
      "stateMutability": "view",
      "type": "function"
    },
    {
      "constant": true,
      "inputs": [
        {
          "name": "id",
          "type": "uint256"
        }
      ],
      "name": "getBookOfId",
      "outputs": [
        {
          "name": "bookName",
          "type": "string"
        },
        {
          "name": "hashBook",
          "type": "string"
        },
        {
          "name": "authors",
          "type": "string"
        },
        {
          "name": "publisher",
          "type": "string"
        },
        {
          "name": "transactionHash",
          "type": "string"
        },
        {
          "name": "yearPublish",
          "type": "string"
        },
        {
          "name": "bookStore",
          "type": "string"
        }
      ],
      "payable": false,
      "stateMutability": "view",
      "type": "function"
    },
    {
      "constant": true,
      "inputs": [
        {
          "name": "id",
          "type": "uint256"
        }
      ],
      "name": "getSpecialBookOfId",
      "outputs": [
        {
          "name": "bookName",
          "type": "string"
        },
        {
          "name": "customerName",
          "type": "string"
        },
        {
          "name": "hashspecialBook",
          "type": "string"
        }
      ],
      "payable": false,
      "stateMutability": "view",
      "type": "function"
    },
    {
      "constant": true,
      "inputs": [
        {
          "name": "hashBook",
          "type": "string"
        }
      ],
      "name": "getIdOfCode",
      "outputs": [
        {
          "name": "id",
          "type": "uint256"
        }
      ],
      "payable": false,
      "stateMutability": "view",
      "type": "function"
    },
    {
      "constant": true,
      "inputs": [
        {
          "name": "nameBook",
          "type": "string"
        }
      ],
      "name": "getIdOfName",
      "outputs": [
        {
          "name": "id",
          "type": "uint256"
        }
      ],
      "payable": false,
      "stateMutability": "view",
      "type": "function"
    },
    {
      "constant": true,
      "inputs": [
        {
          "name": "hashbook",
          "type": "string"
        }
      ],
      "name": "getIdOfsBook",
      "outputs": [
        {
          "name": "id",
          "type": "uint256"
        }
      ],
      "payable": false,
      "stateMutability": "view",
      "type": "function"
    },
    {
      "constant": false,
      "inputs": [],
      "name": "deleteContract",
      "outputs": [],
      "payable": false,
      "stateMutability": "nonpayable",
      "type": "function"
    }
  ],
  "bytecode": "0x608060405234801561001057600080fd5b5033600860006101000a81548173ffffffffffffffffffffffffffffffffffffffff021916908373ffffffffffffffffffffffffffffffffffffffff1602179055506001600681905550611b01806100696000396000f3006080604052600436106100af576000357c0100000000000000000000000000000000000000000000000000000000900463ffffffff16806317346555146100b4578063396a4f02146101ef5780634d0609d11461026c5780635a58cd4c146102e9578063633745811461030057806378aca4cd1461047e5780638625f9d2146104a95780639c860277146104d4578063a0602945146106e1578063e1797c3a146107ac578063f77a7f7f14610ada575b600080fd5b3480156100c057600080fd5b506101ed600480360381019080803590602001908201803590602001908080601f0160208091040260200160405190810160405280939291908181526020018383808284378201915050505050509192919290803590602001908201803590602001908080601f0160208091040260200160405190810160405280939291908181526020018383808284378201915050505050509192919290803590602001908201803590602001908080601f0160208091040260200160405190810160405280939291908181526020018383808284378201915050505050509192919290803590602001908201803590602001908080601f0160208091040260200160405190810160405280939291908181526020018383808284378201915050505050509192919290505050610b57565b005b3480156101fb57600080fd5b50610256600480360381019080803590602001908201803590602001908080601f0160208091040260200160405190810160405280939291908181526020018383808284378201915050505050509192919290505050610cf1565b6040518082815260200191505060405180910390f35b34801561027857600080fd5b506102d3600480360381019080803590602001908201803590602001908080601f0160208091040260200160405190810160405280939291908181526020018383808284378201915050505050509192919290505050610d66565b6040518082815260200191505060405180910390f35b3480156102f557600080fd5b506102fe610ddb565b005b34801561030c57600080fd5b5061032b60048036038101908080359060200190929190505050610e72565b60405180806020018060200180602001848103845287818151815260200191508051906020019080838360005b83811015610373578082015181840152602081019050610358565b50505050905090810190601f1680156103a05780820380516001836020036101000a031916815260200191505b50848103835286818151815260200191508051906020019080838360005b838110156103d95780820151818401526020810190506103be565b50505050905090810190601f1680156104065780820380516001836020036101000a031916815260200191505b50848103825285818151815260200191508051906020019080838360005b8381101561043f578082015181840152602081019050610424565b50505050905090810190601f16801561046c5780820380516001836020036101000a031916815260200191505b50965050505050505060405180910390f35b34801561048a57600080fd5b50610493611091565b6040518082815260200191505060405180910390f35b3480156104b557600080fd5b506104be61109b565b6040518082815260200191505060405180910390f35b3480156104e057600080fd5b506106df600480360381019080803590602001908201803590602001908080601f0160208091040260200160405190810160405280939291908181526020018383808284378201915050505050509192919290803590602001908201803590602001908080601f0160208091040260200160405190810160405280939291908181526020018383808284378201915050505050509192919290803590602001908201803590602001908080601f0160208091040260200160405190810160405280939291908181526020018383808284378201915050505050509192919290803590602001908201803590602001908080601f0160208091040260200160405190810160405280939291908181526020018383808284378201915050505050509192919290803590602001908201803590602001908080601f0160208091040260200160405190810160405280939291908181526020018383808284378201915050505050509192919290803590602001908201803590602001908080601f0160208091040260200160405190810160405280939291908181526020018383808284378201915050505050509192919290803590602001908201803590602001908080601f01602080910402602001604051908101604052809392919081815260200183838082843782019150505050505091929192905050506110a8565b005b3480156106ed57600080fd5b5061078e600480360381019080803590602001908201803590602001908080601f0160208091040260200160405190810160405280939291908181526020018383808284378201915050505050509192919290803590602001908201803590602001908080601f016020809104026020016040519081016040528093929190818152602001838380828437820191505050505050919291929050505061135b565b60405180826000191660001916815260200191505060405180910390f35b3480156107b857600080fd5b506107d7600480360381019080803590602001909291905050506114ce565b604051808060200180602001806020018060200180602001806020018060200188810388528f818151815260200191508051906020019080838360005b8381101561082f578082015181840152602081019050610814565b50505050905090810190601f16801561085c5780820380516001836020036101000a031916815260200191505b5088810387528e818151815260200191508051906020019080838360005b8381101561089557808201518184015260208101905061087a565b50505050905090810190601f1680156108c25780820380516001836020036101000a031916815260200191505b5088810386528d818151815260200191508051906020019080838360005b838110156108fb5780820151818401526020810190506108e0565b50505050905090810190601f1680156109285780820380516001836020036101000a031916815260200191505b5088810385528c818151815260200191508051906020019080838360005b83811015610961578082015181840152602081019050610946565b50505050905090810190601f16801561098e5780820380516001836020036101000a031916815260200191505b5088810384528b818151815260200191508051906020019080838360005b838110156109c75780820151818401526020810190506109ac565b50505050905090810190601f1680156109f45780820380516001836020036101000a031916815260200191505b5088810383528a818151815260200191508051906020019080838360005b83811015610a2d578082015181840152602081019050610a12565b50505050905090810190601f168015610a5a5780820380516001836020036101000a031916815260200191505b50888103825289818151815260200191508051906020019080838360005b83811015610a93578082015181840152602081019050610a78565b50505050905090810190601f168015610ac05780820380516001836020036101000a031916815260200191505b509e50505050505050505050505050505060405180910390f35b348015610ae657600080fd5b50610b41600480360381019080803590602001908201803590602001908080601f01602080910402602001604051908101604052809392919081815260200183838082843782019150505050505091929192905050506119bb565b6040518082815260200191505060405180910390f35b600860009054906101000a900473ffffffffffffffffffffffffffffffffffffffff1673ffffffffffffffffffffffffffffffffffffffff163373ffffffffffffffffffffffffffffffffffffffff16141515610bb357600080fd5b6007546005846040518082805190602001908083835b602083101515610bee5780518252602082019150602081019050602083039250610bc9565b6001836020036101000a038019825116818451168082178552505050505050905001915050908152602001604051809103902081905550836002600060075481526020019081526020016000206000019080519060200190610c51929190611a30565b50826002600060075481526020019081526020016000206002019080519060200190610c7e929190611a30565b50816002600060075481526020019081526020016000206001019080519060200190610cab929190611a30565b50806002600060075481526020019081526020016000206003019080519060200190610cd8929190611a30565b5060076000815480929190600101919050555050505050565b60006004826040518082805190602001908083835b602083101515610d2b5780518252602082019150602081019050602083039250610d06565b6001836020036101000a0380198251168184511680821785525050505050509050019150509081526020016040518091039020549050919050565b60006005826040518082805190602001908083835b602083101515610da05780518252602082019150602081019050602083039250610d7b565b6001836020036101000a0380198251168184511680821785525050505050509050019150509081526020016040518091039020549050919050565b600860009054906101000a900473ffffffffffffffffffffffffffffffffffffffff1673ffffffffffffffffffffffffffffffffffffffff163373ffffffffffffffffffffffffffffffffffffffff16141515610e3757600080fd5b600860009054906101000a900473ffffffffffffffffffffffffffffffffffffffff1673ffffffffffffffffffffffffffffffffffffffff16ff5b6060806060600260008581526020019081526020016000206000018054600181600116156101000203166002900480601f016020809104026020016040519081016040528092919081815260200182805460018160011615610100020316600290048015610f215780601f10610ef657610100808354040283529160200191610f21565b820191906000526020600020905b815481529060010190602001808311610f0457829003601f168201915b50505050509250600260008581526020019081526020016000206003018054600181600116156101000203166002900480601f016020809104026020016040519081016040528092919081815260200182805460018160011615610100020316600290048015610fd25780601f10610fa757610100808354040283529160200191610fd2565b820191906000526020600020905b815481529060010190602001808311610fb557829003601f168201915b50505050509150600260008581526020019081526020016000206002018054600181600116156101000203166002900480601f0160208091040260200160405190810160405280929190818152602001828054600181600116156101000203166002900480156110835780601f1061105857610100808354040283529160200191611083565b820191906000526020600020905b81548152906001019060200180831161106657829003601f168201915b505050505090509193909250565b6000600754905090565b6000600160065403905090565b600860009054906101000a900473ffffffffffffffffffffffffffffffffffffffff1673ffffffffffffffffffffffffffffffffffffffff163373ffffffffffffffffffffffffffffffffffffffff1614151561110457600080fd5b6006546003876040518082805190602001908083835b60208310151561113f578051825260208201915060208101905060208303925061111a565b6001836020036101000a0380198251168184511680821785525050505050509050019150509081526020016040518091039020819055506006546004886040518082805190602001908083835b6020831015156111b1578051825260208201915060208101905060208303925061118c565b6001836020036101000a038019825116818451168082178552505050505050905001915050908152602001604051809103902081905550866001600060065481526020019081526020016000206000019080519060200190611214929190611a30565b50856001600060065481526020019081526020016000206001019080519060200190611241929190611a30565b5084600160006006548152602001908152602001600020600201908051906020019061126e929190611a30565b5083600160006006548152602001908152602001600020600301908051906020019061129b929190611a30565b508060016000600654815260200190815260200160002060070190805190602001906112c8929190611a30565b508260016000600654815260200190815260200160002060050190805190602001906112f5929190611a30565b50816001600060065481526020019081526020016000206004019080519060200190611322929190611a30565b50426001600060065481526020019081526020016000206006018190555060066000815480929190600101919050555050505050505050565b6000606083836040516020018083805190602001908083835b6020831015156113995780518252602082019150602081019050602083039250611374565b6001836020036101000a03801982511681845116808217855250505050505090500182805190602001908083835b6020831015156113ec57805182526020820191506020810190506020830392506113c7565b6001836020036101000a0380198251168184511680821785525050505050509050019250505060405160208183030381529060405290506002816040518082805190602001908083835b60208310151561145b5780518252602082019150602081019050602083039250611436565b6001836020036101000a0380198251168184511680821785525050505050509050019150506020604051808303816000865af115801561149f573d6000803e3d6000fd5b5050506040513d60208110156114b457600080fd5b810190808051906020019092919050505091505092915050565b6060806060806060806060600160008981526020019081526020016000206000018054600181600116156101000203166002900480601f0160208091040260200160405190810160405280929190818152602001828054600181600116156101000203166002900480156115835780601f1061155857610100808354040283529160200191611583565b820191906000526020600020905b81548152906001019060200180831161156657829003601f168201915b50505050509650600160008981526020019081526020016000206001018054600181600116156101000203166002900480601f0160208091040260200160405190810160405280929190818152602001828054600181600116156101000203166002900480156116345780601f1061160957610100808354040283529160200191611634565b820191906000526020600020905b81548152906001019060200180831161161757829003601f168201915b50505050509550600160008981526020019081526020016000206002018054600181600116156101000203166002900480601f0160208091040260200160405190810160405280929190818152602001828054600181600116156101000203166002900480156116e55780601f106116ba576101008083540402835291602001916116e5565b820191906000526020600020905b8154815290600101906020018083116116c857829003601f168201915b50505050509450600160008981526020019081526020016000206003018054600181600116156101000203166002900480601f0160208091040260200160405190810160405280929190818152602001828054600181600116156101000203166002900480156117965780601f1061176b57610100808354040283529160200191611796565b820191906000526020600020905b81548152906001019060200180831161177957829003601f168201915b50505050509350600160008981526020019081526020016000206007018054600181600116156101000203166002900480601f0160208091040260200160405190810160405280929190818152602001828054600181600116156101000203166002900480156118475780601f1061181c57610100808354040283529160200191611847565b820191906000526020600020905b81548152906001019060200180831161182a57829003601f168201915b50505050509150600160008981526020019081526020016000206004018054600181600116156101000203166002900480601f0160208091040260200160405190810160405280929190818152602001828054600181600116156101000203166002900480156118f85780601f106118cd576101008083540402835291602001916118f8565b820191906000526020600020905b8154815290600101906020018083116118db57829003601f168201915b50505050509250600160008981526020019081526020016000206005018054600181600116156101000203166002900480601f0160208091040260200160405190810160405280929190818152602001828054600181600116156101000203166002900480156119a95780601f1061197e576101008083540402835291602001916119a9565b820191906000526020600020905b81548152906001019060200180831161198c57829003601f168201915b50505050509050919395979092949650565b60006003826040518082805190602001908083835b6020831015156119f557805182526020820191506020810190506020830392506119d0565b6001836020036101000a0380198251168184511680821785525050505050509050019150509081526020016040518091039020549050919050565b828054600181600116156101000203166002900490600052602060002090601f016020900481019282601f10611a7157805160ff1916838001178555611a9f565b82800160010185558215611a9f579182015b82811115611a9e578251825591602001919060010190611a83565b5b509050611aac9190611ab0565b5090565b611ad291905b80821115611ace576000816000905550600101611ab6565b5090565b905600a165627a7a7230582050a56c5c96f9a988565c5dba0a089166305ea8c367b02a8f467c5ebd048848b20029",
  "source": "pragma solidity ^ 0.4.23;\ncontract Bookchain {\n\n  // Mapping from user address to boolean type\n  mapping(address => bool) isAuthorized;\n\n  // Define struct\n  struct book {\n    string _bookName;\n    string _hashBook;\n    string _authors;\n    //string _secondPulisher;\n    string _publisher;\n    string _transaction;\n    string _bookStore;\n    uint _time;\n    //address _secondPulisherAddress;\n    string _yearPublish;\n  }\n  struct specialBook{\n    string _sbookName;\n    string _sbookUserID;\n    string _hashsBook;\n    string _customerName;\n  }\n\n  mapping(uint => book) _books;\n  mapping(uint => specialBook) _specialBooks;\n\n  mapping(string => uint) _productCodeToId;\n  mapping(string => uint) _productNametoId;\n  mapping(string => uint) _productsCodetoId;\n\n  uint _numberOfBooks;\n  uint _numberOfsBooks;\n\n  address _admin;\n\n  mapping(string => string) _productCodeToName;\n  //mapping(string => address) _productCodeToBACAddress;\n\n  // As a prerequisite for some functions\n  modifier onlyAdmin {\n    require(msg.sender == _admin);\n    _;\n  }\n\n  modifier onlyAuthorized(address addr) {\n    require(isAuthorized[addr] == true);\n    _;\n  }\n\n  // Constructor function\n  constructor() public {\n    _admin = msg.sender;\n    _numberOfBooks = 1;\n  }\n\n  // Register product information\n  function contractRegister(string bookName, string hashBook, string authors,string publisher, string bookStore,string transaction,string yearPublish) public onlyAdmin {\n\n    // require(bytes(_productCodeToName[productCode]).length == 0);\n\n    // require(bytes(productName).length >= 3 && bytes(productName).length <= 64);\n    // require(bytes(productCode).length == 13);\n    // require(bytes(rawMaterials).length >= 9);\n\n    \n    _productCodeToId[hashBook] = _numberOfBooks;\n    _productNametoId[bookName] = _numberOfBooks;\n    //_productCodeToBACAddress[productCode] = BACAddress;\n\n    _books[_numberOfBooks]._bookName = bookName;\n    _books[_numberOfBooks]._hashBook = hashBook;\n    _books[_numberOfBooks]._authors = authors;\n    _books[_numberOfBooks]._publisher = publisher;\n    _books[_numberOfBooks]._yearPublish = yearPublish;\n    _books[_numberOfBooks]._bookStore = bookStore;\n     _books[_numberOfBooks]._transaction = transaction;\n     _books[_numberOfBooks]._time = now;\n     \n\n    _numberOfBooks++;\n\n  }\n  function hashSpecialBook(string memory hashBook, string memory suserID) public pure returns(bytes32){\n        string memory hbook = (string(abi.encodePacked(hashBook,suserID)));\n        return sha256(hbook);\n    }\n  function specialBookPublish(string sbookName,string shashbook, string suserID,string customerName) public onlyAdmin \n  {\n     _productsCodetoId[shashbook] = _numberOfsBooks ;\n    _specialBooks[_numberOfsBooks]._sbookName = sbookName;\n    _specialBooks[_numberOfsBooks]._hashsBook = shashbook;\n    _specialBooks[_numberOfsBooks]._sbookUserID = suserID;\n    _specialBooks[_numberOfsBooks]._customerName = customerName;\n\n    _numberOfsBooks++;\n  }\n\n  // Register raw material information\n//   function materialRegister(string materialName, string materialCode, address BACAddress) public onlyAdmin {\n\n//     require(bytes(_productCodeToName[materialCode]).length == 0);\n\n//     require(bytes(materialName).length >= 3 && bytes(materialName).length <= 64);\n//     require(bytes(materialCode).length == 9);\n\n//     _productCodeToName[materialCode] = materialName;\n//     _productCodeToId[materialCode] = _numberOfProducts;\n//     _productCodeToBACAddress[materialCode] = BACAddress;\n\n//     _products[_numberOfProducts]._productName = materialName;\n//     _products[_numberOfProducts]._productCode = materialCode;\n//     _products[_numberOfProducts]._rawMaterials = \"/\";\n//     _products[_numberOfProducts]._productOwner = msg.sender;\n//     _products[_numberOfProducts]._timestamp = now;\n//     _products[_numberOfProducts]._BACAddress = BACAddress;\n\n//     _numberOfProducts++;\n\n//   }\n\n  // Get the number of products\n  function getNumberOfBooks() constant public returns(uint numberOfBooks) {\n    numberOfBooks = _numberOfBooks - 1;\n  }\n   function getNumberOfSaleBooks() constant public returns(uint numberOfsBooks) {\n    numberOfsBooks = _numberOfsBooks;\n  }\n\n\n  // Get product information by id\n  function getBookOfId(uint id) constant public returns(string bookName, string hashBook, string authors, string publisher, string transactionHash, string yearPublish,string bookStore) {\n\n    bookName = _books[id]._bookName;\n    hashBook = _books[id]._hashBook;\n    authors = _books[id]._authors;\n    publisher = _books[id]._publisher;\n    yearPublish = _books[id]._yearPublish;\n    transactionHash = _books[id]._transaction;\n    bookStore = _books[id]._bookStore;\n  }\n  function getSpecialBookOfId(uint id) constant public returns(string bookName, string customerName,string hashspecialBook) {\n\n    bookName = _specialBooks[id]._sbookName;\n    customerName =  _specialBooks[id]._customerName;\n    hashspecialBook = _specialBooks[id]._hashsBook;\n  }\n\n\n  function getIdOfCode(string hashBook) constant public returns(uint id) {\n    id = _productCodeToId[hashBook];\n  }\n  function getIdOfName(string nameBook) constant public returns(uint id)\n  {\n    id = _productNametoId[nameBook];\n  }\n  function getIdOfsBook(string hashbook) constant public returns(uint id)\n  {\n    id = _productsCodetoId[hashbook];\n  }\n\n//   function getAddressOfCode(string productCode) constant public returns(address addr) {\n//     addr = _productCodeToBACAddress[productCode];\n//   }\n\n  // Add user to authorization list\n\n  // Destroy the contract\n  function deleteContract() public onlyAdmin {\n    selfdestruct(_admin);\n  }\n\n}",
  "sourcePath": "/Users/macbook/Desktop/DemoSystem/bookblockchain/contracts/Bookchain.sol",
  "compiler": {
    "name": "solc",
    "version": "0.4.23+commit.124ca40d.Emscripten.clang"
  },
  "schemaVersion": "3.4.1",
  "updatedAt": "2021-10-15T06:25:17.452Z",
  "networkType": "ethereum",
  "devdoc": {
    "methods": {}
  },
  "userdoc": {
    "methods": {}
  }
}