{
  "contractName": "Bookchain",
  "abi": [
    {
      "inputs": [],
      "payable": false,
      "stateMutability": "nonpayable",
      "type": "constructor"
    },
    {
      "constant": false,
      "inputs": [
        {
          "name": "bookName",
          "type": "string"
        },
        {
          "name": "hashBook",
          "type": "string"
        },
        {
          "name": "authors",
          "type": "string"
        },
        {
          "name": "publisher",
          "type": "string"
        },
        {
          "name": "authorAddress",
          "type": "string"
        },
        {
          "name": "transaction",
          "type": "string"
        },
        {
          "name": "yearPublish",
          "type": "string"
        },
        {
          "name": "linkIPFS",
          "type": "string"
        }
      ],
      "name": "contractRegister",
      "outputs": [],
      "payable": false,
      "stateMutability": "nonpayable",
      "type": "function"
    },
    {
      "constant": true,
      "inputs": [
        {
          "name": "hashBook",
          "type": "string"
        },
        {
          "name": "suserID",
          "type": "string"
        }
      ],
      "name": "hashSpecialBook",
      "outputs": [
        {
          "name": "",
          "type": "bytes32"
        }
      ],
      "payable": false,
      "stateMutability": "pure",
      "type": "function"
    },
    {
      "constant": false,
      "inputs": [
        {
          "name": "sbookName",
          "type": "string"
        },
        {
          "name": "shashbook",
          "type": "string"
        },
        {
          "name": "suserID",
          "type": "string"
        },
        {
          "name": "customerName",
          "type": "string"
        }
      ],
      "name": "specialBookPublish",
      "outputs": [],
      "payable": false,
      "stateMutability": "nonpayable",
      "type": "function"
    },
    {
      "constant": true,
      "inputs": [],
      "name": "getNumberOfBooks",
      "outputs": [
        {
          "name": "numberOfBooks",
          "type": "uint256"
        }
      ],
      "payable": false,
      "stateMutability": "view",
      "type": "function"
    },
    {
      "constant": true,
      "inputs": [],
      "name": "getNumberOfSaleBooks",
      "outputs": [
        {
          "name": "numberOfsBooks",
          "type": "uint256"
        }
      ],
      "payable": false,
      "stateMutability": "view",
      "type": "function"
    },
    {
      "constant": true,
      "inputs": [
        {
          "name": "id",
          "type": "uint256"
        }
      ],
      "name": "getBookOfId",
      "outputs": [
        {
          "name": "bookName",
          "type": "string"
        },
        {
          "name": "hashBook",
          "type": "string"
        },
        {
          "name": "authors",
          "type": "string"
        },
        {
          "name": "publisher",
          "type": "string"
        },
        {
          "name": "transactionHash",
          "type": "string"
        },
        {
          "name": "yearPublish",
          "type": "string"
        },
        {
          "name": "linkIPFS",
          "type": "string"
        }
      ],
      "payable": false,
      "stateMutability": "view",
      "type": "function"
    },
    {
      "constant": true,
      "inputs": [
        {
          "name": "id",
          "type": "uint256"
        }
      ],
      "name": "getSpecialBookOfId",
      "outputs": [
        {
          "name": "bookName",
          "type": "string"
        },
        {
          "name": "customerName",
          "type": "string"
        },
        {
          "name": "hashspecialBook",
          "type": "string"
        }
      ],
      "payable": false,
      "stateMutability": "view",
      "type": "function"
    },
    {
      "constant": true,
      "inputs": [
        {
          "name": "hashBook",
          "type": "string"
        }
      ],
      "name": "getIdOfCode",
      "outputs": [
        {
          "name": "id",
          "type": "uint256"
        }
      ],
      "payable": false,
      "stateMutability": "view",
      "type": "function"
    },
    {
      "constant": true,
      "inputs": [
        {
          "name": "nameBook",
          "type": "string"
        }
      ],
      "name": "getIdOfName",
      "outputs": [
        {
          "name": "id",
          "type": "uint256"
        }
      ],
      "payable": false,
      "stateMutability": "view",
      "type": "function"
    },
    {
      "constant": true,
      "inputs": [
        {
          "name": "hashbook",
          "type": "string"
        }
      ],
      "name": "getIdOfsBook",
      "outputs": [
        {
          "name": "id",
          "type": "uint256"
        }
      ],
      "payable": false,
      "stateMutability": "view",
      "type": "function"
    },
    {
      "constant": false,
      "inputs": [
        {
          "name": "addr",
          "type": "address"
        }
      ],
      "name": "addUser",
      "outputs": [],
      "payable": false,
      "stateMutability": "nonpayable",
      "type": "function"
    },
    {
      "constant": false,
      "inputs": [
        {
          "name": "addr",
          "type": "address"
        }
      ],
      "name": "removeUser",
      "outputs": [],
      "payable": false,
      "stateMutability": "nonpayable",
      "type": "function"
    },
    {
      "constant": true,
      "inputs": [
        {
          "name": "addr",
          "type": "address"
        }
      ],
      "name": "checkUser",
      "outputs": [
        {
          "name": "result",
          "type": "bool"
        }
      ],
      "payable": false,
      "stateMutability": "view",
      "type": "function"
    },
    {
      "constant": false,
      "inputs": [],
      "name": "deleteContract",
      "outputs": [],
      "payable": false,
      "stateMutability": "nonpayable",
      "type": "function"
    }
  ],
  "bytecode": "0x608060405234801561001057600080fd5b5033600860006101000a81548173ffffffffffffffffffffffffffffffffffffffff021916908373ffffffffffffffffffffffffffffffffffffffff1602179055506001600681905550611e1b806100696000396000f3006080604052600436106100d0576000357c0100000000000000000000000000000000000000000000000000000000900463ffffffff16806317346555146100d55780631e9d48cf14610210578063396a4f021461026b578063421b2d8b146102e85780634c8911c51461032b5780634d0609d11461057e5780635a58cd4c146105fb578063633745811461061257806378aca4cd146107905780638625f9d2146107bb57806398575188146107e6578063a060294514610829578063e1797c3a146108f4578063f77a7f7f14610c22575b600080fd5b3480156100e157600080fd5b5061020e600480360381019080803590602001908201803590602001908080601f0160208091040260200160405190810160405280939291908181526020018383808284378201915050505050509192919290803590602001908201803590602001908080601f0160208091040260200160405190810160405280939291908181526020018383808284378201915050505050509192919290803590602001908201803590602001908080601f0160208091040260200160405190810160405280939291908181526020018383808284378201915050505050509192919290803590602001908201803590602001908080601f0160208091040260200160405190810160405280939291908181526020018383808284378201915050505050509192919290505050610c9f565b005b34801561021c57600080fd5b50610251600480360381019080803573ffffffffffffffffffffffffffffffffffffffff169060200190929190505050610e39565b604051808215151515815260200191505060405180910390f35b34801561027757600080fd5b506102d2600480360381019080803590602001908201803590602001908080601f0160208091040260200160405190810160405280939291908181526020018383808284378201915050505050509192919290505050610e8e565b6040518082815260200191505060405180910390f35b3480156102f457600080fd5b50610329600480360381019080803573ffffffffffffffffffffffffffffffffffffffff169060200190929190505050610f03565b005b34801561033757600080fd5b5061057c600480360381019080803590602001908201803590602001908080601f0160208091040260200160405190810160405280939291908181526020018383808284378201915050505050509192919290803590602001908201803590602001908080601f0160208091040260200160405190810160405280939291908181526020018383808284378201915050505050509192919290803590602001908201803590602001908080601f0160208091040260200160405190810160405280939291908181526020018383808284378201915050505050509192919290803590602001908201803590602001908080601f0160208091040260200160405190810160405280939291908181526020018383808284378201915050505050509192919290803590602001908201803590602001908080601f0160208091040260200160405190810160405280939291908181526020018383808284378201915050505050509192919290803590602001908201803590602001908080601f0160208091040260200160405190810160405280939291908181526020018383808284378201915050505050509192919290803590602001908201803590602001908080601f0160208091040260200160405190810160405280939291908181526020018383808284378201915050505050509192919290803590602001908201803590602001908080601f0160208091040260200160405190810160405280939291908181526020018383808284378201915050505050509192919290505050610fb9565b005b34801561058a57600080fd5b506105e5600480360381019080803590602001908201803590602001908080601f016020809104026020016040519081016040528093929190818152602001838380828437820191505050505050919291929050505061127d565b6040518082815260200191505060405180910390f35b34801561060757600080fd5b506106106112f2565b005b34801561061e57600080fd5b5061063d60048036038101908080359060200190929190505050611389565b60405180806020018060200180602001848103845287818151815260200191508051906020019080838360005b8381101561068557808201518184015260208101905061066a565b50505050905090810190601f1680156106b25780820380516001836020036101000a031916815260200191505b50848103835286818151815260200191508051906020019080838360005b838110156106eb5780820151818401526020810190506106d0565b50505050905090810190601f1680156107185780820380516001836020036101000a031916815260200191505b50848103825285818151815260200191508051906020019080838360005b83811015610751578082015181840152602081019050610736565b50505050905090810190601f16801561077e5780820380516001836020036101000a031916815260200191505b50965050505050505060405180910390f35b34801561079c57600080fd5b506107a56115a8565b6040518082815260200191505060405180910390f35b3480156107c757600080fd5b506107d06115b2565b6040518082815260200191505060405180910390f35b3480156107f257600080fd5b50610827600480360381019080803573ffffffffffffffffffffffffffffffffffffffff1690602001909291905050506115bf565b005b34801561083557600080fd5b506108d6600480360381019080803590602001908201803590602001908080601f0160208091040260200160405190810160405280939291908181526020018383808284378201915050505050509192919290803590602001908201803590602001908080601f0160208091040260200160405190810160405280939291908181526020018383808284378201915050505050509192919290505050611675565b60405180826000191660001916815260200191505060405180910390f35b34801561090057600080fd5b5061091f600480360381019080803590602001909291905050506117e8565b604051808060200180602001806020018060200180602001806020018060200188810388528f818151815260200191508051906020019080838360005b8381101561097757808201518184015260208101905061095c565b50505050905090810190601f1680156109a45780820380516001836020036101000a031916815260200191505b5088810387528e818151815260200191508051906020019080838360005b838110156109dd5780820151818401526020810190506109c2565b50505050905090810190601f168015610a0a5780820380516001836020036101000a031916815260200191505b5088810386528d818151815260200191508051906020019080838360005b83811015610a43578082015181840152602081019050610a28565b50505050905090810190601f168015610a705780820380516001836020036101000a031916815260200191505b5088810385528c818151815260200191508051906020019080838360005b83811015610aa9578082015181840152602081019050610a8e565b50505050905090810190601f168015610ad65780820380516001836020036101000a031916815260200191505b5088810384528b818151815260200191508051906020019080838360005b83811015610b0f578082015181840152602081019050610af4565b50505050905090810190601f168015610b3c5780820380516001836020036101000a031916815260200191505b5088810383528a818151815260200191508051906020019080838360005b83811015610b75578082015181840152602081019050610b5a565b50505050905090810190601f168015610ba25780820380516001836020036101000a031916815260200191505b50888103825289818151815260200191508051906020019080838360005b83811015610bdb578082015181840152602081019050610bc0565b50505050905090810190601f168015610c085780820380516001836020036101000a031916815260200191505b509e50505050505050505050505050505060405180910390f35b348015610c2e57600080fd5b50610c89600480360381019080803590602001908201803590602001908080601f0160208091040260200160405190810160405280939291908181526020018383808284378201915050505050509192919290505050611cd5565b6040518082815260200191505060405180910390f35b600860009054906101000a900473ffffffffffffffffffffffffffffffffffffffff1673ffffffffffffffffffffffffffffffffffffffff163373ffffffffffffffffffffffffffffffffffffffff16141515610cfb57600080fd5b6007546005846040518082805190602001908083835b602083101515610d365780518252602082019150602081019050602083039250610d11565b6001836020036101000a038019825116818451168082178552505050505050905001915050908152602001604051809103902081905550836002600060075481526020019081526020016000206000019080519060200190610d99929190611d4a565b50826002600060075481526020019081526020016000206002019080519060200190610dc6929190611d4a565b50816002600060075481526020019081526020016000206001019080519060200190610df3929190611d4a565b50806002600060075481526020019081526020016000206003019080519060200190610e20929190611d4a565b5060076000815480929190600101919050555050505050565b60008060008373ffffffffffffffffffffffffffffffffffffffff1673ffffffffffffffffffffffffffffffffffffffff16815260200190815260200160002060009054906101000a900460ff169050919050565b60006004826040518082805190602001908083835b602083101515610ec85780518252602082019150602081019050602083039250610ea3565b6001836020036101000a0380198251168184511680821785525050505050509050019150509081526020016040518091039020549050919050565b600860009054906101000a900473ffffffffffffffffffffffffffffffffffffffff1673ffffffffffffffffffffffffffffffffffffffff163373ffffffffffffffffffffffffffffffffffffffff16141515610f5f57600080fd5b60016000808373ffffffffffffffffffffffffffffffffffffffff1673ffffffffffffffffffffffffffffffffffffffff16815260200190815260200160002060006101000a81548160ff02191690831515021790555050565b600860009054906101000a900473ffffffffffffffffffffffffffffffffffffffff1673ffffffffffffffffffffffffffffffffffffffff163373ffffffffffffffffffffffffffffffffffffffff1614151561101557600080fd5b6006546003886040518082805190602001908083835b602083101515611050578051825260208201915060208101905060208303925061102b565b6001836020036101000a0380198251168184511680821785525050505050509050019150509081526020016040518091039020819055506006546004896040518082805190602001908083835b6020831015156110c2578051825260208201915060208101905060208303925061109d565b6001836020036101000a038019825116818451168082178552505050505050905001915050908152602001604051809103902081905550876001600060065481526020019081526020016000206000019080519060200190611125929190611d4a565b50866001600060065481526020019081526020016000206001019080519060200190611152929190611d4a565b5085600160006006548152602001908152602001600020600201908051906020019061117f929190611d4a565b508460016000600654815260200190815260200160002060030190805190602001906111ac929190611d4a565b508160016000600654815260200190815260200160002060070190805190602001906111d9929190611d4a565b50836001600060065481526020019081526020016000206005019080519060200190611206929190611d4a565b50826001600060065481526020019081526020016000206004019080519060200190611233929190611d4a565b50806001600060065481526020019081526020016000206006019080519060200190611260929190611d4a565b506006600081548092919060010191905055505050505050505050565b60006005826040518082805190602001908083835b6020831015156112b75780518252602082019150602081019050602083039250611292565b6001836020036101000a0380198251168184511680821785525050505050509050019150509081526020016040518091039020549050919050565b600860009054906101000a900473ffffffffffffffffffffffffffffffffffffffff1673ffffffffffffffffffffffffffffffffffffffff163373ffffffffffffffffffffffffffffffffffffffff1614151561134e57600080fd5b600860009054906101000a900473ffffffffffffffffffffffffffffffffffffffff1673ffffffffffffffffffffffffffffffffffffffff16ff5b6060806060600260008581526020019081526020016000206000018054600181600116156101000203166002900480601f0160208091040260200160405190810160405280929190818152602001828054600181600116156101000203166002900480156114385780601f1061140d57610100808354040283529160200191611438565b820191906000526020600020905b81548152906001019060200180831161141b57829003601f168201915b50505050509250600260008581526020019081526020016000206003018054600181600116156101000203166002900480601f0160208091040260200160405190810160405280929190818152602001828054600181600116156101000203166002900480156114e95780601f106114be576101008083540402835291602001916114e9565b820191906000526020600020905b8154815290600101906020018083116114cc57829003601f168201915b50505050509150600260008581526020019081526020016000206002018054600181600116156101000203166002900480601f01602080910402602001604051908101604052809291908181526020018280546001816001161561010002031660029004801561159a5780601f1061156f5761010080835404028352916020019161159a565b820191906000526020600020905b81548152906001019060200180831161157d57829003601f168201915b505050505090509193909250565b6000600754905090565b6000600160065403905090565b600860009054906101000a900473ffffffffffffffffffffffffffffffffffffffff1673ffffffffffffffffffffffffffffffffffffffff163373ffffffffffffffffffffffffffffffffffffffff1614151561161b57600080fd5b60008060008373ffffffffffffffffffffffffffffffffffffffff1673ffffffffffffffffffffffffffffffffffffffff16815260200190815260200160002060006101000a81548160ff02191690831515021790555050565b6000606083836040516020018083805190602001908083835b6020831015156116b3578051825260208201915060208101905060208303925061168e565b6001836020036101000a03801982511681845116808217855250505050505090500182805190602001908083835b60208310151561170657805182526020820191506020810190506020830392506116e1565b6001836020036101000a0380198251168184511680821785525050505050509050019250505060405160208183030381529060405290506002816040518082805190602001908083835b6020831015156117755780518252602082019150602081019050602083039250611750565b6001836020036101000a0380198251168184511680821785525050505050509050019150506020604051808303816000865af11580156117b9573d6000803e3d6000fd5b5050506040513d60208110156117ce57600080fd5b810190808051906020019092919050505091505092915050565b6060806060806060806060600160008981526020019081526020016000206000018054600181600116156101000203166002900480601f01602080910402602001604051908101604052809291908181526020018280546001816001161561010002031660029004801561189d5780601f106118725761010080835404028352916020019161189d565b820191906000526020600020905b81548152906001019060200180831161188057829003601f168201915b50505050509650600160008981526020019081526020016000206001018054600181600116156101000203166002900480601f01602080910402602001604051908101604052809291908181526020018280546001816001161561010002031660029004801561194e5780601f106119235761010080835404028352916020019161194e565b820191906000526020600020905b81548152906001019060200180831161193157829003601f168201915b50505050509550600160008981526020019081526020016000206002018054600181600116156101000203166002900480601f0160208091040260200160405190810160405280929190818152602001828054600181600116156101000203166002900480156119ff5780601f106119d4576101008083540402835291602001916119ff565b820191906000526020600020905b8154815290600101906020018083116119e257829003601f168201915b50505050509450600160008981526020019081526020016000206003018054600181600116156101000203166002900480601f016020809104026020016040519081016040528092919081815260200182805460018160011615610100020316600290048015611ab05780601f10611a8557610100808354040283529160200191611ab0565b820191906000526020600020905b815481529060010190602001808311611a9357829003601f168201915b50505050509350600160008981526020019081526020016000206007018054600181600116156101000203166002900480601f016020809104026020016040519081016040528092919081815260200182805460018160011615610100020316600290048015611b615780601f10611b3657610100808354040283529160200191611b61565b820191906000526020600020905b815481529060010190602001808311611b4457829003601f168201915b50505050509150600160008981526020019081526020016000206004018054600181600116156101000203166002900480601f016020809104026020016040519081016040528092919081815260200182805460018160011615610100020316600290048015611c125780601f10611be757610100808354040283529160200191611c12565b820191906000526020600020905b815481529060010190602001808311611bf557829003601f168201915b50505050509250600160008981526020019081526020016000206006018054600181600116156101000203166002900480601f016020809104026020016040519081016040528092919081815260200182805460018160011615610100020316600290048015611cc35780601f10611c9857610100808354040283529160200191611cc3565b820191906000526020600020905b815481529060010190602001808311611ca657829003601f168201915b50505050509050919395979092949650565b60006003826040518082805190602001908083835b602083101515611d0f5780518252602082019150602081019050602083039250611cea565b6001836020036101000a0380198251168184511680821785525050505050509050019150509081526020016040518091039020549050919050565b828054600181600116156101000203166002900490600052602060002090601f016020900481019282601f10611d8b57805160ff1916838001178555611db9565b82800160010185558215611db9579182015b82811115611db8578251825591602001919060010190611d9d565b5b509050611dc69190611dca565b5090565b611dec91905b80821115611de8576000816000905550600101611dd0565b5090565b905600a165627a7a72305820cde9dddc36e3b131b664cb90855f9e6da9835939cbe18a9bb11c67bbe2fb96ac0029",
  "source": "pragma solidity ^ 0.4.23;\ncontract Bookchain {\n\n  // Mapping from user address to boolean type\n  mapping(address => bool) isAuthorized;\n\n  // Define struct\n  struct book {\n    string _bookName;\n    string _hashBook;\n    string _authors;\n    //string _secondPulisher;\n    string _publisher;\n    string _transaction;\n    string _authorAddress;\n    string _linkIPFS;\n    //address _secondPulisherAddress;\n    string _yearPublish;\n  }\n  struct specialBook{\n    string _sbookName;\n    string _sbookUserID;\n    string _hashsBook;\n    string _customerName;\n  }\n\n  mapping(uint => book) _books;\n  mapping(uint => specialBook) _specialBooks;\n\n  mapping(string => uint) _productCodeToId;\n  mapping(string => uint) _productNametoId;\n  mapping(string => uint) _productsCodetoId;\n\n  uint _numberOfBooks;\n  uint _numberOfsBooks;\n\n  address _admin;\n\n  mapping(string => string) _productCodeToName;\n  //mapping(string => address) _productCodeToBACAddress;\n\n  // As a prerequisite for some functions\n  modifier onlyAdmin {\n    require(msg.sender == _admin);\n    _;\n  }\n\n  modifier onlyAuthorized(address addr) {\n    require(isAuthorized[addr] == true);\n    _;\n  }\n\n  // Constructor function\n  constructor() public {\n    _admin = msg.sender;\n    _numberOfBooks = 1;\n  }\n\n  // Register product information\n  function contractRegister(string bookName, string hashBook, string authors,string publisher, string authorAddress,string transaction,string yearPublish,string linkIPFS) public onlyAdmin {\n\n    // require(bytes(_productCodeToName[productCode]).length == 0);\n\n    // require(bytes(productName).length >= 3 && bytes(productName).length <= 64);\n    // require(bytes(productCode).length == 13);\n    // require(bytes(rawMaterials).length >= 9);\n\n    \n    _productCodeToId[hashBook] = _numberOfBooks;\n    _productNametoId[bookName] = _numberOfBooks;\n    //_productCodeToBACAddress[productCode] = BACAddress;\n\n    _books[_numberOfBooks]._bookName = bookName;\n    _books[_numberOfBooks]._hashBook = hashBook;\n    _books[_numberOfBooks]._authors = authors;\n    _books[_numberOfBooks]._publisher = publisher;\n    _books[_numberOfBooks]._yearPublish = yearPublish;\n    _books[_numberOfBooks]._authorAddress = authorAddress;\n     _books[_numberOfBooks]._transaction = transaction;\n     _books[_numberOfBooks]._linkIPFS = linkIPFS;\n     \n\n    _numberOfBooks++;\n\n  }\n  function hashSpecialBook(string memory hashBook, string memory suserID) public pure returns(bytes32){\n        string memory hbook = (string(abi.encodePacked(hashBook,suserID)));\n        return sha256(hbook);\n    }\n  function specialBookPublish(string sbookName,string shashbook, string suserID,string customerName) public onlyAdmin \n  {\n     _productsCodetoId[shashbook] = _numberOfsBooks ;\n    _specialBooks[_numberOfsBooks]._sbookName = sbookName;\n    _specialBooks[_numberOfsBooks]._hashsBook = shashbook;\n    _specialBooks[_numberOfsBooks]._sbookUserID = suserID;\n    _specialBooks[_numberOfsBooks]._customerName = customerName;\n\n    _numberOfsBooks++;\n  }\n\n  // Register raw material information\n//   function materialRegister(string materialName, string materialCode, address BACAddress) public onlyAdmin {\n\n//     require(bytes(_productCodeToName[materialCode]).length == 0);\n\n//     require(bytes(materialName).length >= 3 && bytes(materialName).length <= 64);\n//     require(bytes(materialCode).length == 9);\n\n//     _productCodeToName[materialCode] = materialName;\n//     _productCodeToId[materialCode] = _numberOfProducts;\n//     _productCodeToBACAddress[materialCode] = BACAddress;\n\n//     _products[_numberOfProducts]._productName = materialName;\n//     _products[_numberOfProducts]._productCode = materialCode;\n//     _products[_numberOfProducts]._rawMaterials = \"/\";\n//     _products[_numberOfProducts]._productOwner = msg.sender;\n//     _products[_numberOfProducts]._timestamp = now;\n//     _products[_numberOfProducts]._BACAddress = BACAddress;\n\n//     _numberOfProducts++;\n\n//   }\n\n  // Get the number of products\n  function getNumberOfBooks() constant public returns(uint numberOfBooks) {\n    numberOfBooks = _numberOfBooks - 1;\n  }\n   function getNumberOfSaleBooks() constant public returns(uint numberOfsBooks) {\n    numberOfsBooks = _numberOfsBooks;\n  }\n\n\n  // Get product information by id\n  function getBookOfId(uint id) constant public returns(string bookName, string hashBook, string authors, string publisher, string transactionHash, string yearPublish,string linkIPFS) {\n\n    bookName = _books[id]._bookName;\n    hashBook = _books[id]._hashBook;\n    authors = _books[id]._authors;\n    publisher = _books[id]._publisher;\n    yearPublish = _books[id]._yearPublish;\n    transactionHash = _books[id]._transaction;\n    linkIPFS = _books[id]._linkIPFS;\n  }\n  function getSpecialBookOfId(uint id) constant public returns(string bookName, string customerName,string hashspecialBook) {\n\n    bookName = _specialBooks[id]._sbookName;\n    customerName =  _specialBooks[id]._customerName;\n    hashspecialBook = _specialBooks[id]._hashsBook;\n  }\n\n\n  function getIdOfCode(string hashBook) constant public returns(uint id) {\n    id = _productCodeToId[hashBook];\n  }\n  function getIdOfName(string nameBook) constant public returns(uint id)\n  {\n    id = _productNametoId[nameBook];\n  }\n  function getIdOfsBook(string hashbook) constant public returns(uint id)\n  {\n    id = _productsCodetoId[hashbook];\n  }\n\n//   function getAddressOfCode(string productCode) constant public returns(address addr) {\n//     addr = _productCodeToBACAddress[productCode];\n//   }\n\n  // Add user to authorization list\n  function addUser(address addr) public onlyAdmin {\n    isAuthorized[addr] = true;\n  }\n\n  // Remove user\n  function removeUser(address addr) public onlyAdmin {\n    isAuthorized[addr] = false;\n  }\n\n  // Check if the user is authorized\n  function checkUser(address addr) constant public returns(bool result) {\n    result = isAuthorized[addr];\n  }\n\n  // Destroy the contract\n  function deleteContract() public onlyAdmin {\n    selfdestruct(_admin);\n  }\n\n}",
  "sourcePath": "/Users/macbook/Desktop/DemoSystem/bookblockchain/contracts/bookchain.sol",
  "compiler": {
    "name": "solc",
    "version": "0.4.23+commit.124ca40d.Emscripten.clang"
  },
  "schemaVersion": "3.4.1",
  "updatedAt": "2021-09-28T07:55:42.466Z",
  "networkType": "ethereum",
  "devdoc": {
    "methods": {}
  },
  "userdoc": {
    "methods": {}
  }
}