{
  "contractName": "PRC",
  "abi": [
    {
      "inputs": [],
      "payable": false,
      "stateMutability": "nonpayable",
      "type": "constructor"
    },
    {
      "constant": false,
      "inputs": [
        {
          "name": "bookName",
          "type": "string"
        },
        {
          "name": "hashBook",
          "type": "string"
        },
        {
          "name": "authors",
          "type": "string"
        },
        {
          "name": "publisher",
          "type": "string"
        },
        {
          "name": "authorAddress",
          "type": "string"
        },
        {
          "name": "transaction",
          "type": "string"
        }
      ],
      "name": "contractRegister",
      "outputs": [],
      "payable": false,
      "stateMutability": "nonpayable",
      "type": "function"
    },
    {
      "constant": true,
      "inputs": [],
      "name": "getNumberOfBooks",
      "outputs": [
        {
          "name": "numberOfBooks",
          "type": "uint256"
        }
      ],
      "payable": false,
      "stateMutability": "view",
      "type": "function"
    },
    {
      "constant": true,
      "inputs": [
        {
          "name": "id",
          "type": "uint256"
        }
      ],
      "name": "getBookOfId",
      "outputs": [
        {
          "name": "bookName",
          "type": "string"
        },
        {
          "name": "hashBook",
          "type": "string"
        },
        {
          "name": "authors",
          "type": "string"
        },
        {
          "name": "publisher",
          "type": "string"
        },
        {
          "name": "timestamp",
          "type": "uint256"
        }
      ],
      "payable": false,
      "stateMutability": "view",
      "type": "function"
    },
    {
      "constant": true,
      "inputs": [
        {
          "name": "hashBook",
          "type": "string"
        }
      ],
      "name": "getIdOfCode",
      "outputs": [
        {
          "name": "id",
          "type": "uint256"
        }
      ],
      "payable": false,
      "stateMutability": "view",
      "type": "function"
    },
    {
      "constant": false,
      "inputs": [
        {
          "name": "addr",
          "type": "address"
        }
      ],
      "name": "addUser",
      "outputs": [],
      "payable": false,
      "stateMutability": "nonpayable",
      "type": "function"
    },
    {
      "constant": false,
      "inputs": [
        {
          "name": "addr",
          "type": "address"
        }
      ],
      "name": "removeUser",
      "outputs": [],
      "payable": false,
      "stateMutability": "nonpayable",
      "type": "function"
    },
    {
      "constant": true,
      "inputs": [
        {
          "name": "addr",
          "type": "address"
        }
      ],
      "name": "checkUser",
      "outputs": [
        {
          "name": "result",
          "type": "bool"
        }
      ],
      "payable": false,
      "stateMutability": "view",
      "type": "function"
    },
    {
      "constant": false,
      "inputs": [],
      "name": "deleteContract",
      "outputs": [],
      "payable": false,
      "stateMutability": "nonpayable",
      "type": "function"
    }
  ],
  "bytecode": "0x608060405234801561001057600080fd5b5033600460006101000a81548173ffffffffffffffffffffffffffffffffffffffff021916908373ffffffffffffffffffffffffffffffffffffffff1602179055506001600381905550610f17806100696000396000f30060806040526004361061008e576000357c0100000000000000000000000000000000000000000000000000000000900463ffffffff1680631e9d48cf14610093578063421b2d8b146100ee57806354388b83146101315780635a58cd4c146102f85780638625f9d21461030f578063985751881461033a578063e1797c3a1461037d578063f77a7f7f1461056e575b600080fd5b34801561009f57600080fd5b506100d4600480360381019080803573ffffffffffffffffffffffffffffffffffffffff1690602001909291905050506105eb565b604051808215151515815260200191505060405180910390f35b3480156100fa57600080fd5b5061012f600480360381019080803573ffffffffffffffffffffffffffffffffffffffff169060200190929190505050610640565b005b34801561013d57600080fd5b506102f6600480360381019080803590602001908201803590602001908080601f0160208091040260200160405190810160405280939291908181526020018383808284378201915050505050509192919290803590602001908201803590602001908080601f0160208091040260200160405190810160405280939291908181526020018383808284378201915050505050509192919290803590602001908201803590602001908080601f0160208091040260200160405190810160405280939291908181526020018383808284378201915050505050509192919290803590602001908201803590602001908080601f0160208091040260200160405190810160405280939291908181526020018383808284378201915050505050509192919290803590602001908201803590602001908080601f0160208091040260200160405190810160405280939291908181526020018383808284378201915050505050509192919290803590602001908201803590602001908080601f01602080910402602001604051908101604052809392919081815260200183838082843782019150505050505091929192905050506106f6565b005b34801561030457600080fd5b5061030d610989565b005b34801561031b57600080fd5b50610324610a20565b6040518082815260200191505060405180910390f35b34801561034657600080fd5b5061037b600480360381019080803573ffffffffffffffffffffffffffffffffffffffff169060200190929190505050610a2d565b005b34801561038957600080fd5b506103a860048036038101908080359060200190929190505050610ae3565b604051808060200180602001806020018060200186815260200185810385528a818151815260200191508051906020019080838360005b838110156103fa5780820151818401526020810190506103df565b50505050905090810190601f1680156104275780820380516001836020036101000a031916815260200191505b50858103845289818151815260200191508051906020019080838360005b83811015610460578082015181840152602081019050610445565b50505050905090810190601f16801561048d5780820380516001836020036101000a031916815260200191505b50858103835288818151815260200191508051906020019080838360005b838110156104c65780820151818401526020810190506104ab565b50505050905090810190601f1680156104f35780820380516001836020036101000a031916815260200191505b50858103825287818151815260200191508051906020019080838360005b8381101561052c578082015181840152602081019050610511565b50505050905090810190601f1680156105595780820380516001836020036101000a031916815260200191505b50995050505050505050505060405180910390f35b34801561057a57600080fd5b506105d5600480360381019080803590602001908201803590602001908080601f0160208091040260200160405190810160405280939291908181526020018383808284378201915050505050509192919290505050610dd1565b6040518082815260200191505060405180910390f35b60008060008373ffffffffffffffffffffffffffffffffffffffff1673ffffffffffffffffffffffffffffffffffffffff16815260200190815260200160002060009054906101000a900460ff169050919050565b600460009054906101000a900473ffffffffffffffffffffffffffffffffffffffff1673ffffffffffffffffffffffffffffffffffffffff163373ffffffffffffffffffffffffffffffffffffffff1614151561069c57600080fd5b60016000808373ffffffffffffffffffffffffffffffffffffffff1673ffffffffffffffffffffffffffffffffffffffff16815260200190815260200160002060006101000a81548160ff02191690831515021790555050565b600460009054906101000a900473ffffffffffffffffffffffffffffffffffffffff1673ffffffffffffffffffffffffffffffffffffffff163373ffffffffffffffffffffffffffffffffffffffff1614151561075257600080fd5b856005866040518082805190602001908083835b60208310151561078b5780518252602082019150602081019050602083039250610766565b6001836020036101000a038019825116818451168082178552505050505050905001915050908152602001604051809103902090805190602001906107d1929190610e46565b506003546002866040518082805190602001908083835b60208310151561080d57805182526020820191506020810190506020830392506107e8565b6001836020036101000a038019825116818451168082178552505050505050905001915050908152602001604051809103902081905550856001600060035481526020019081526020016000206000019080519060200190610870929190610e46565b5084600160006003548152602001908152602001600020600101908051906020019061089d929190610e46565b508360016000600354815260200190815260200160002060020190805190602001906108ca929190610e46565b508260016000600354815260200190815260200160002060030190805190602001906108f7929190610e46565b504260016000600354815260200190815260200160002060060181905550816001600060035481526020019081526020016000206005019080519060200190610941929190610e46565b5080600160006003548152602001908152602001600020600401908051906020019061096e929190610e46565b50600360008154809291906001019190505550505050505050565b600460009054906101000a900473ffffffffffffffffffffffffffffffffffffffff1673ffffffffffffffffffffffffffffffffffffffff163373ffffffffffffffffffffffffffffffffffffffff161415156109e557600080fd5b600460009054906101000a900473ffffffffffffffffffffffffffffffffffffffff1673ffffffffffffffffffffffffffffffffffffffff16ff5b6000600160035403905090565b600460009054906101000a900473ffffffffffffffffffffffffffffffffffffffff1673ffffffffffffffffffffffffffffffffffffffff163373ffffffffffffffffffffffffffffffffffffffff16141515610a8957600080fd5b60008060008373ffffffffffffffffffffffffffffffffffffffff1673ffffffffffffffffffffffffffffffffffffffff16815260200190815260200160002060006101000a81548160ff02191690831515021790555050565b6060806060806000600160008781526020019081526020016000206000018054600181600116156101000203166002900480601f016020809104026020016040519081016040528092919081815260200182805460018160011615610100020316600290048015610b955780601f10610b6a57610100808354040283529160200191610b95565b820191906000526020600020905b815481529060010190602001808311610b7857829003601f168201915b50505050509450600160008781526020019081526020016000206001018054600181600116156101000203166002900480601f016020809104026020016040519081016040528092919081815260200182805460018160011615610100020316600290048015610c465780601f10610c1b57610100808354040283529160200191610c46565b820191906000526020600020905b815481529060010190602001808311610c2957829003601f168201915b50505050509350600160008781526020019081526020016000206002018054600181600116156101000203166002900480601f016020809104026020016040519081016040528092919081815260200182805460018160011615610100020316600290048015610cf75780601f10610ccc57610100808354040283529160200191610cf7565b820191906000526020600020905b815481529060010190602001808311610cda57829003601f168201915b50505050509250600160008781526020019081526020016000206003018054600181600116156101000203166002900480601f016020809104026020016040519081016040528092919081815260200182805460018160011615610100020316600290048015610da85780601f10610d7d57610100808354040283529160200191610da8565b820191906000526020600020905b815481529060010190602001808311610d8b57829003601f168201915b505050505091506001600087815260200190815260200160002060060154905091939590929450565b60006002826040518082805190602001908083835b602083101515610e0b5780518252602082019150602081019050602083039250610de6565b6001836020036101000a0380198251168184511680821785525050505050509050019150509081526020016040518091039020549050919050565b828054600181600116156101000203166002900490600052602060002090601f016020900481019282601f10610e8757805160ff1916838001178555610eb5565b82800160010185558215610eb5579182015b82811115610eb4578251825591602001919060010190610e99565b5b509050610ec29190610ec6565b5090565b610ee891905b80821115610ee4576000816000905550600101610ecc565b5090565b905600a165627a7a72305820925fb021b0970b9197a5c2c7e249dc3640ef7ee77913a1a3dfac90e624c5043c0029",
  "source": "pragma solidity ^ 0.4.23;\ncontract PRC {\n\n  // Mapping from user address to boolean type\n  mapping(address => bool) isAuthorized;\n\n  // Define struct\n  struct book {\n    string _bookName;\n    string _hashBook;\n    string _authors;\n    //string _secondPulisher;\n    string _publisher;\n    string _transaction;\n    string _authorAddress;\n    //address _secondPulisherAddress;\n    uint _timestamp;\n  }\n\n  mapping(uint => book) _books;\n\n  mapping(string => uint) _productCodeToId;\n\n  uint _numberOfBooks;\n\n  address _admin;\n\n  mapping(string => string) _productCodeToName;\n  //mapping(string => address) _productCodeToBACAddress;\n\n  // As a prerequisite for some functions\n  modifier onlyAdmin {\n    require(msg.sender == _admin);\n    _;\n  }\n\n  modifier onlyAuthorized(address addr) {\n    require(isAuthorized[addr] == true);\n    _;\n  }\n\n  // Constructor function\n  constructor() public {\n    _admin = msg.sender;\n    _numberOfBooks = 1;\n  }\n\n  // Register product information\n  function contractRegister(string bookName, string hashBook, string authors,string publisher, string authorAddress,string transaction) public onlyAdmin {\n\n    // require(bytes(_productCodeToName[productCode]).length == 0);\n\n    // require(bytes(productName).length >= 3 && bytes(productName).length <= 64);\n    // require(bytes(productCode).length == 13);\n    // require(bytes(rawMaterials).length >= 9);\n\n    _productCodeToName[hashBook] = bookName;\n    _productCodeToId[hashBook] = _numberOfBooks;\n    //_productCodeToBACAddress[productCode] = BACAddress;\n\n    _books[_numberOfBooks]._bookName = bookName;\n    _books[_numberOfBooks]._hashBook = hashBook;\n    _books[_numberOfBooks]._authors = authors;\n    _books[_numberOfBooks]._publisher = publisher;\n    _books[_numberOfBooks]._timestamp = now;\n    _books[_numberOfBooks]._authorAddress = authorAddress;\n     _books[_numberOfBooks]._transaction = transaction;\n\n    _numberOfBooks++;\n\n  }\n\n  // Register raw material information\n//   function materialRegister(string materialName, string materialCode, address BACAddress) public onlyAdmin {\n\n//     require(bytes(_productCodeToName[materialCode]).length == 0);\n\n//     require(bytes(materialName).length >= 3 && bytes(materialName).length <= 64);\n//     require(bytes(materialCode).length == 9);\n\n//     _productCodeToName[materialCode] = materialName;\n//     _productCodeToId[materialCode] = _numberOfProducts;\n//     _productCodeToBACAddress[materialCode] = BACAddress;\n\n//     _products[_numberOfProducts]._productName = materialName;\n//     _products[_numberOfProducts]._productCode = materialCode;\n//     _products[_numberOfProducts]._rawMaterials = \"/\";\n//     _products[_numberOfProducts]._productOwner = msg.sender;\n//     _products[_numberOfProducts]._timestamp = now;\n//     _products[_numberOfProducts]._BACAddress = BACAddress;\n\n//     _numberOfProducts++;\n\n//   }\n\n  // Get the number of products\n  function getNumberOfBooks() constant public returns(uint numberOfBooks) {\n    numberOfBooks = _numberOfBooks - 1;\n  }\n\n  // Get product information by id\n  function getBookOfId(uint id) constant public returns(string bookName, string hashBook, string authors, string publisher, uint timestamp) {\n\n    bookName = _books[id]._bookName;\n    hashBook = _books[id]._hashBook;\n    authors = _books[id]._authors;\n    publisher = _books[id]._publisher;\n    timestamp = _books[id]._timestamp;\n  }\n\n  function getIdOfCode(string hashBook) constant public returns(uint id) {\n    id = _productCodeToId[hashBook];\n  }\n\n//   function getAddressOfCode(string productCode) constant public returns(address addr) {\n//     addr = _productCodeToBACAddress[productCode];\n//   }\n\n  // Add user to authorization list\n  function addUser(address addr) public onlyAdmin {\n    isAuthorized[addr] = true;\n  }\n\n  // Remove user\n  function removeUser(address addr) public onlyAdmin {\n    isAuthorized[addr] = false;\n  }\n\n  // Check if the user is authorized\n  function checkUser(address addr) constant public returns(bool result) {\n    result = isAuthorized[addr];\n  }\n\n  // Destroy the contract\n  function deleteContract() public onlyAdmin {\n    selfdestruct(_admin);\n  }\n\n}",
  "sourcePath": "/Users/macbook/Desktop/DemoSystem/bookblockchain/contracts/bookchain.sol",
  "compiler": {
    "name": "solc",
    "version": "0.4.23+commit.124ca40d.Emscripten.clang"
  },
  "schemaVersion": "3.4.1",
  "updatedAt": "2021-09-19T05:53:19.210Z",
  "devdoc": {
    "methods": {}
  },
  "userdoc": {
    "methods": {}
  }
}